{
  "_format": "hh-sol-artifact-1",
  "contractName": "INTToken",
  "sourceName": "contracts/INTToken.sol",
  "abi": [
    {
      "inputs": [
        {
          "internalType": "uint256",
          "name": "totalBalance",
          "type": "uint256"
        }
      ],
      "stateMutability": "nonpayable",
      "type": "constructor"
    },
    {
      "anonymous": false,
      "inputs": [
        {
          "indexed": true,
          "internalType": "address",
          "name": "updatedBy",
          "type": "address"
        },
        {
          "indexed": false,
          "internalType": "address",
          "name": "newAddress",
          "type": "address"
        }
      ],
      "name": "AddWhitelist",
      "type": "event"
    },
    {
      "anonymous": false,
      "inputs": [
        {
          "indexed": true,
          "internalType": "address",
          "name": "_owner",
          "type": "address"
        },
        {
          "indexed": true,
          "internalType": "address",
          "name": "_spender",
          "type": "address"
        },
        {
          "indexed": false,
          "internalType": "uint256",
          "name": "_value",
          "type": "uint256"
        }
      ],
      "name": "Approval",
      "type": "event"
    },
    {
      "anonymous": false,
      "inputs": [
        {
          "indexed": true,
          "internalType": "address",
          "name": "updatedBy",
          "type": "address"
        },
        {
          "indexed": false,
          "internalType": "address",
          "name": "removedAddress",
          "type": "address"
        }
      ],
      "name": "RemoveWhitelist",
      "type": "event"
    },
    {
      "anonymous": false,
      "inputs": [
        {
          "indexed": true,
          "internalType": "address",
          "name": "_from",
          "type": "address"
        },
        {
          "indexed": true,
          "internalType": "address",
          "name": "_to",
          "type": "address"
        },
        {
          "indexed": false,
          "internalType": "uint256",
          "name": "_value",
          "type": "uint256"
        }
      ],
      "name": "Transfer",
      "type": "event"
    },
    {
      "inputs": [
        {
          "internalType": "address",
          "name": "_toBeAdded",
          "type": "address"
        }
      ],
      "name": "addAddressWhitelist",
      "outputs": [],
      "stateMutability": "nonpayable",
      "type": "function"
    },
    {
      "inputs": [
        {
          "internalType": "address",
          "name": "_owner",
          "type": "address"
        },
        {
          "internalType": "address",
          "name": "_spender",
          "type": "address"
        }
      ],
      "name": "allowance",
      "outputs": [
        {
          "internalType": "uint256",
          "name": "",
          "type": "uint256"
        }
      ],
      "stateMutability": "view",
      "type": "function"
    },
    {
      "inputs": [
        {
          "internalType": "address",
          "name": "_spender",
          "type": "address"
        },
        {
          "internalType": "uint256",
          "name": "_value",
          "type": "uint256"
        }
      ],
      "name": "approve",
      "outputs": [
        {
          "internalType": "bool",
          "name": "",
          "type": "bool"
        }
      ],
      "stateMutability": "nonpayable",
      "type": "function"
    },
    {
      "inputs": [
        {
          "internalType": "address",
          "name": "_owner",
          "type": "address"
        }
      ],
      "name": "balanceOf",
      "outputs": [
        {
          "internalType": "uint256",
          "name": "",
          "type": "uint256"
        }
      ],
      "stateMutability": "view",
      "type": "function"
    },
    {
      "inputs": [
        {
          "internalType": "uint256",
          "name": "_amount",
          "type": "uint256"
        },
        {
          "internalType": "address",
          "name": "account",
          "type": "address"
        }
      ],
      "name": "burn",
      "outputs": [],
      "stateMutability": "nonpayable",
      "type": "function"
    },
    {
      "inputs": [
        {
          "internalType": "address",
          "name": "_address",
          "type": "address"
        }
      ],
      "name": "checkAddressInWhitelist",
      "outputs": [
        {
          "internalType": "bool",
          "name": "",
          "type": "bool"
        }
      ],
      "stateMutability": "view",
      "type": "function"
    },
    {
      "inputs": [],
      "name": "decimals",
      "outputs": [
        {
          "internalType": "uint8",
          "name": "",
          "type": "uint8"
        }
      ],
      "stateMutability": "view",
      "type": "function"
    },
    {
      "inputs": [
        {
          "internalType": "uint256",
          "name": "_amount",
          "type": "uint256"
        },
        {
          "internalType": "address",
          "name": "minter",
          "type": "address"
        }
      ],
      "name": "mint",
      "outputs": [],
      "stateMutability": "nonpayable",
      "type": "function"
    },
    {
      "inputs": [],
      "name": "name",
      "outputs": [
        {
          "internalType": "string",
          "name": "",
          "type": "string"
        }
      ],
      "stateMutability": "view",
      "type": "function"
    },
    {
      "inputs": [],
      "name": "owner",
      "outputs": [
        {
          "internalType": "address",
          "name": "",
          "type": "address"
        }
      ],
      "stateMutability": "view",
      "type": "function"
    },
    {
      "inputs": [
        {
          "internalType": "address",
          "name": "_toBeRemoved",
          "type": "address"
        }
      ],
      "name": "removeAddressWhitelist",
      "outputs": [],
      "stateMutability": "nonpayable",
      "type": "function"
    },
    {
      "inputs": [],
      "name": "symbol",
      "outputs": [
        {
          "internalType": "string",
          "name": "",
          "type": "string"
        }
      ],
      "stateMutability": "view",
      "type": "function"
    },
    {
      "inputs": [],
      "name": "totalSupply",
      "outputs": [
        {
          "internalType": "uint256",
          "name": "",
          "type": "uint256"
        }
      ],
      "stateMutability": "view",
      "type": "function"
    },
    {
      "inputs": [
        {
          "internalType": "address",
          "name": "_to",
          "type": "address"
        },
        {
          "internalType": "uint256",
          "name": "_amount",
          "type": "uint256"
        }
      ],
      "name": "transfer",
      "outputs": [
        {
          "internalType": "bool",
          "name": "",
          "type": "bool"
        }
      ],
      "stateMutability": "nonpayable",
      "type": "function"
    },
    {
      "inputs": [
        {
          "internalType": "address",
          "name": "_from",
          "type": "address"
        },
        {
          "internalType": "address",
          "name": "_to",
          "type": "address"
        },
        {
          "internalType": "uint256",
          "name": "_amount",
          "type": "uint256"
        }
      ],
      "name": "transferFrom",
      "outputs": [
        {
          "internalType": "bool",
          "name": "",
          "type": "bool"
        }
      ],
      "stateMutability": "nonpayable",
      "type": "function"
    }
  ],
  "bytecode": "0x60806040523480156200001157600080fd5b50604051620027e9380380620027e983398181016040528101906200003791906200047b565b6040518060400160405280600381526020017f494e5400000000000000000000000000000000000000000000000000000000008152506040518060400160405280600881526020017f494e54546f6b656e000000000000000000000000000000000000000000000000815250601233806000806101000a81548173ffffffffffffffffffffffffffffffffffffffff021916908373ffffffffffffffffffffffffffffffffffffffff16021790555081600260006101000a81548160ff021916908360ff1602179055508360039080519060200190620001199291906200038b565b508260049080519060200190620001329291906200038b565b506001600660008373ffffffffffffffffffffffffffffffffffffffff1673ffffffffffffffffffffffffffffffffffffffff16815260200190815260200160002060006101000a81548160ff02191690831515021790555050505050620001a18133620001a860201b60201c565b50620006c1565b80600660008273ffffffffffffffffffffffffffffffffffffffff1673ffffffffffffffffffffffffffffffffffffffff16815260200190815260200160002060009054906101000a900460ff1662000238576040517f08c379a00000000000000000000000000000000000000000000000000000000081526004016200022f906200050e565b60405180910390fd5b600073ffffffffffffffffffffffffffffffffffffffff168273ffffffffffffffffffffffffffffffffffffffff161415620002ab576040517f08c379a0000000000000000000000000000000000000000000000000000000008152600401620002a29062000580565b60405180910390fd5b8260016000828254620002bf9190620005d1565b9250508190555082600560008473ffffffffffffffffffffffffffffffffffffffff1673ffffffffffffffffffffffffffffffffffffffff1681526020019081526020016000206000828254620003179190620005d1565b925050819055508173ffffffffffffffffffffffffffffffffffffffff16600073ffffffffffffffffffffffffffffffffffffffff167fddf252ad1be2c89b69c2b068fc378daa952ba7f163c4a11628f55a4df523b3ef856040516200037e91906200063f565b60405180910390a3505050565b82805462000399906200068b565b90600052602060002090601f016020900481019282620003bd576000855562000409565b82601f10620003d857805160ff191683800117855562000409565b8280016001018555821562000409579182015b8281111562000408578251825591602001919060010190620003eb565b5b5090506200041891906200041c565b5090565b5b80821115620004375760008160009055506001016200041d565b5090565b600080fd5b6000819050919050565b620004558162000440565b81146200046157600080fd5b50565b60008151905062000475816200044a565b92915050565b6000602082840312156200049457620004936200043b565b5b6000620004a48482850162000464565b91505092915050565b600082825260208201905092915050565b7f45524332303a20796f75277265206e6f7420696e2077686974656c6973740000600082015250565b6000620004f6601e83620004ad565b91506200050382620004be565b602082019050919050565b600060208201905081810360008301526200052981620004e7565b9050919050565b7f45524332303a206d696e74206279207a65726f20616464726573730000000000600082015250565b600062000568601b83620004ad565b9150620005758262000530565b602082019050919050565b600060208201905081810360008301526200059b8162000559565b9050919050565b7f4e487b7100000000000000000000000000000000000000000000000000000000600052601160045260246000fd5b6000620005de8262000440565b9150620005eb8362000440565b9250827fffffffffffffffffffffffffffffffffffffffffffffffffffffffffffffffff03821115620006235762000622620005a2565b5b828201905092915050565b620006398162000440565b82525050565b60006020820190506200065660008301846200062e565b92915050565b7f4e487b7100000000000000000000000000000000000000000000000000000000600052602260045260246000fd5b60006002820490506001821680620006a457607f821691505b60208210811415620006bb57620006ba6200065c565b5b50919050565b61211880620006d16000396000f3fe608060405234801561001057600080fd5b50600436106100f55760003560e01c806370a08231116100975780639d705001116100665780639d70500114610288578063a9059cbb146102a4578063dd62ed3e146102d4578063fcd3533c14610304576100f5565b806370a08231146102005780638da5cb5b1461023057806394bf804d1461024e57806395d89b411461026a576100f5565b80631c6ac1c4116100d35780631c6ac1c41461016657806323b872dd14610196578063313ce567146101c65780635b0129a8146101e4576100f5565b806306fdde03146100fa578063095ea7b31461011857806318160ddd14610148575b600080fd5b610102610320565b60405161010f91906116d2565b60405180910390f35b610132600480360381019061012d919061178d565b6103b2565b60405161013f91906117e8565b60405180910390f35b610150610513565b60405161015d9190611812565b60405180910390f35b610180600480360381019061017b919061182d565b61051d565b60405161018d91906117e8565b60405180910390f35b6101b060048036038101906101ab919061185a565b610573565b6040516101bd91906117e8565b60405180910390f35b6101ce61098c565b6040516101db91906118c9565b60405180910390f35b6101fe60048036038101906101f9919061182d565b6109a3565b005b61021a6004803603810190610215919061182d565b610bf5565b6040516102279190611812565b60405180910390f35b610238610c3e565b60405161024591906118f3565b60405180910390f35b6102686004803603810190610263919061190e565b610c62565b005b610272610e39565b60405161027f91906116d2565b60405180910390f35b6102a2600480360381019061029d919061182d565b610ecb565b005b6102be60048036038101906102b9919061178d565b6110ff565b6040516102cb91906117e8565b60405180910390f35b6102ee60048036038101906102e9919061194e565b611355565b6040516102fb9190611812565b60405180910390f35b61031e6004803603810190610319919061190e565b6113dc565b005b60606004805461032f906119bd565b80601f016020809104026020016040519081016040528092919081815260200182805461035b906119bd565b80156103a85780601f1061037d576101008083540402835291602001916103a8565b820191906000526020600020905b81548152906001019060200180831161038b57829003601f168201915b5050505050905090565b60008073ffffffffffffffffffffffffffffffffffffffff168373ffffffffffffffffffffffffffffffffffffffff161415610423576040517f08c379a000000000000000000000000000000000000000000000000000000000815260040161041a90611a3b565b60405180910390fd5b81600760003373ffffffffffffffffffffffffffffffffffffffff1673ffffffffffffffffffffffffffffffffffffffff16815260200190815260200160002060008573ffffffffffffffffffffffffffffffffffffffff1673ffffffffffffffffffffffffffffffffffffffff168152602001908152602001600020819055508273ffffffffffffffffffffffffffffffffffffffff163373ffffffffffffffffffffffffffffffffffffffff167f8c5be1e5ebec7d5bd14f71427d1e84f3dd0314c0f7b2291e5b200ac8c7c3b925846040516105019190611812565b60405180910390a36001905092915050565b6000600154905090565b6000600660008373ffffffffffffffffffffffffffffffffffffffff1673ffffffffffffffffffffffffffffffffffffffff16815260200190815260200160002060009054906101000a900460ff169050919050565b6000838280600560008473ffffffffffffffffffffffffffffffffffffffff1673ffffffffffffffffffffffffffffffffffffffff1681526020019081526020016000205410156105f9576040517f08c379a00000000000000000000000000000000000000000000000000000000081526004016105f090611aa7565b60405180910390fd5b600073ffffffffffffffffffffffffffffffffffffffff168673ffffffffffffffffffffffffffffffffffffffff161415610669576040517f08c379a000000000000000000000000000000000000000000000000000000000815260040161066090611b39565b60405180910390fd5b600073ffffffffffffffffffffffffffffffffffffffff168573ffffffffffffffffffffffffffffffffffffffff1614156106d9576040517f08c379a00000000000000000000000000000000000000000000000000000000081526004016106d090611ba5565b60405180910390fd5b6000841161071c576040517f08c379a000000000000000000000000000000000000000000000000000000000815260040161071390611c37565b60405180910390fd5b83600760008873ffffffffffffffffffffffffffffffffffffffff1673ffffffffffffffffffffffffffffffffffffffff16815260200190815260200160002060003373ffffffffffffffffffffffffffffffffffffffff1673ffffffffffffffffffffffffffffffffffffffff1681526020019081526020016000205410156107db576040517f08c379a00000000000000000000000000000000000000000000000000000000081526004016107d290611ca3565b60405180910390fd5b83600560008873ffffffffffffffffffffffffffffffffffffffff1673ffffffffffffffffffffffffffffffffffffffff168152602001908152602001600020600082825461082a9190611cf2565b9250508190555083600560008773ffffffffffffffffffffffffffffffffffffffff1673ffffffffffffffffffffffffffffffffffffffff16815260200190815260200160002060008282546108809190611d26565b9250508190555083600760008873ffffffffffffffffffffffffffffffffffffffff1673ffffffffffffffffffffffffffffffffffffffff16815260200190815260200160002060003373ffffffffffffffffffffffffffffffffffffffff1673ffffffffffffffffffffffffffffffffffffffff16815260200190815260200160002060008282546109139190611cf2565b925050819055508473ffffffffffffffffffffffffffffffffffffffff168673ffffffffffffffffffffffffffffffffffffffff167fddf252ad1be2c89b69c2b068fc378daa952ba7f163c4a11628f55a4df523b3ef866040516109779190611812565b60405180910390a36001925050509392505050565b6000600260009054906101000a900460ff16905090565b33600660008273ffffffffffffffffffffffffffffffffffffffff1673ffffffffffffffffffffffffffffffffffffffff16815260200190815260200160002060009054906101000a900460ff16610a30576040517f08c379a0000000000000000000000000000000000000000000000000000000008152600401610a2790611dc8565b60405180910390fd5b60008054906101000a900473ffffffffffffffffffffffffffffffffffffffff1673ffffffffffffffffffffffffffffffffffffffff168273ffffffffffffffffffffffffffffffffffffffff161415610abf576040517f08c379a0000000000000000000000000000000000000000000000000000000008152600401610ab690611e5a565b60405180910390fd5b600660008373ffffffffffffffffffffffffffffffffffffffff1673ffffffffffffffffffffffffffffffffffffffff16815260200190815260200160002060009054906101000a900460ff16610b4b576040517f08c379a0000000000000000000000000000000000000000000000000000000008152600401610b4290611eec565b60405180910390fd5b6000600660008473ffffffffffffffffffffffffffffffffffffffff1673ffffffffffffffffffffffffffffffffffffffff16815260200190815260200160002060006101000a81548160ff0219169083151502179055503373ffffffffffffffffffffffffffffffffffffffff167f403c5e5cf4d35483fc4491cc180e7c00fd44449e95dc52cf2f470d8c02699f6583604051610be991906118f3565b60405180910390a25050565b6000600560008373ffffffffffffffffffffffffffffffffffffffff1673ffffffffffffffffffffffffffffffffffffffff168152602001908152602001600020549050919050565b60008054906101000a900473ffffffffffffffffffffffffffffffffffffffff1681565b80600660008273ffffffffffffffffffffffffffffffffffffffff1673ffffffffffffffffffffffffffffffffffffffff16815260200190815260200160002060009054906101000a900460ff16610cef576040517f08c379a0000000000000000000000000000000000000000000000000000000008152600401610ce690611dc8565b60405180910390fd5b600073ffffffffffffffffffffffffffffffffffffffff168273ffffffffffffffffffffffffffffffffffffffff161415610d5f576040517f08c379a0000000000000000000000000000000000000000000000000000000008152600401610d5690611f58565b60405180910390fd5b8260016000828254610d719190611d26565b9250508190555082600560008473ffffffffffffffffffffffffffffffffffffffff1673ffffffffffffffffffffffffffffffffffffffff1681526020019081526020016000206000828254610dc79190611d26565b925050819055508173ffffffffffffffffffffffffffffffffffffffff16600073ffffffffffffffffffffffffffffffffffffffff167fddf252ad1be2c89b69c2b068fc378daa952ba7f163c4a11628f55a4df523b3ef85604051610e2c9190611812565b60405180910390a3505050565b606060038054610e48906119bd565b80601f0160208091040260200160405190810160405280929190818152602001828054610e74906119bd565b8015610ec15780601f10610e9657610100808354040283529160200191610ec1565b820191906000526020600020905b815481529060010190602001808311610ea457829003601f168201915b5050505050905090565b33600660008273ffffffffffffffffffffffffffffffffffffffff1673ffffffffffffffffffffffffffffffffffffffff16815260200190815260200160002060009054906101000a900460ff16610f58576040517f08c379a0000000000000000000000000000000000000000000000000000000008152600401610f4f90611dc8565b60405180910390fd5b600073ffffffffffffffffffffffffffffffffffffffff168273ffffffffffffffffffffffffffffffffffffffff161415610fc8576040517f08c379a0000000000000000000000000000000000000000000000000000000008152600401610fbf90611fc4565b60405180910390fd5b600660008373ffffffffffffffffffffffffffffffffffffffff1673ffffffffffffffffffffffffffffffffffffffff16815260200190815260200160002060009054906101000a900460ff1615611055576040517f08c379a000000000000000000000000000000000000000000000000000000000815260040161104c90612056565b60405180910390fd5b6001600660008473ffffffffffffffffffffffffffffffffffffffff1673ffffffffffffffffffffffffffffffffffffffff16815260200190815260200160002060006101000a81548160ff0219169083151502179055503373ffffffffffffffffffffffffffffffffffffffff167f4e9f391aa121d4fbfafbf818d9f6a6eb66cf9349e7aa7b884cee27f2498aa396836040516110f391906118f3565b60405180910390a25050565b6000338280600560008473ffffffffffffffffffffffffffffffffffffffff1673ffffffffffffffffffffffffffffffffffffffff168152602001908152602001600020541015611185576040517f08c379a000000000000000000000000000000000000000000000000000000000815260040161117c90611aa7565b60405180910390fd5b600073ffffffffffffffffffffffffffffffffffffffff168573ffffffffffffffffffffffffffffffffffffffff1614156111f5576040517f08c379a00000000000000000000000000000000000000000000000000000000081526004016111ec90611ba5565b60405180910390fd5b60008411611238576040517f08c379a000000000000000000000000000000000000000000000000000000000815260040161122f90611c37565b60405180910390fd5b83600560003373ffffffffffffffffffffffffffffffffffffffff1673ffffffffffffffffffffffffffffffffffffffff16815260200190815260200160002060008282546112879190611cf2565b9250508190555083600560008773ffffffffffffffffffffffffffffffffffffffff1673ffffffffffffffffffffffffffffffffffffffff16815260200190815260200160002060008282546112dd9190611d26565b925050819055508473ffffffffffffffffffffffffffffffffffffffff163373ffffffffffffffffffffffffffffffffffffffff167fddf252ad1be2c89b69c2b068fc378daa952ba7f163c4a11628f55a4df523b3ef866040516113419190611812565b60405180910390a360019250505092915050565b6000600760008473ffffffffffffffffffffffffffffffffffffffff1673ffffffffffffffffffffffffffffffffffffffff16815260200190815260200160002060008373ffffffffffffffffffffffffffffffffffffffff1673ffffffffffffffffffffffffffffffffffffffff16815260200190815260200160002054905092915050565b80600660008273ffffffffffffffffffffffffffffffffffffffff1673ffffffffffffffffffffffffffffffffffffffff16815260200190815260200160002060009054906101000a900460ff16611469576040517f08c379a000000000000000000000000000000000000000000000000000000000815260040161146090611dc8565b60405180910390fd5b818380600560008473ffffffffffffffffffffffffffffffffffffffff1673ffffffffffffffffffffffffffffffffffffffff1681526020019081526020016000205410156114ed576040517f08c379a00000000000000000000000000000000000000000000000000000000081526004016114e490611aa7565b60405180910390fd5b600073ffffffffffffffffffffffffffffffffffffffff168473ffffffffffffffffffffffffffffffffffffffff16141561155d576040517f08c379a0000000000000000000000000000000000000000000000000000000008152600401611554906120c2565b60405180910390fd5b846001600082825461156f9190611cf2565b9250508190555084600560008673ffffffffffffffffffffffffffffffffffffffff1673ffffffffffffffffffffffffffffffffffffffff16815260200190815260200160002060008282546115c59190611cf2565b92505081905550600073ffffffffffffffffffffffffffffffffffffffff168473ffffffffffffffffffffffffffffffffffffffff167fddf252ad1be2c89b69c2b068fc378daa952ba7f163c4a11628f55a4df523b3ef8760405161162a9190611812565b60405180910390a35050505050565b600081519050919050565b600082825260208201905092915050565b60005b83811015611673578082015181840152602081019050611658565b83811115611682576000848401525b50505050565b6000601f19601f8301169050919050565b60006116a482611639565b6116ae8185611644565b93506116be818560208601611655565b6116c781611688565b840191505092915050565b600060208201905081810360008301526116ec8184611699565b905092915050565b600080fd5b600073ffffffffffffffffffffffffffffffffffffffff82169050919050565b6000611724826116f9565b9050919050565b61173481611719565b811461173f57600080fd5b50565b6000813590506117518161172b565b92915050565b6000819050919050565b61176a81611757565b811461177557600080fd5b50565b60008135905061178781611761565b92915050565b600080604083850312156117a4576117a36116f4565b5b60006117b285828601611742565b92505060206117c385828601611778565b9150509250929050565b60008115159050919050565b6117e2816117cd565b82525050565b60006020820190506117fd60008301846117d9565b92915050565b61180c81611757565b82525050565b60006020820190506118276000830184611803565b92915050565b600060208284031215611843576118426116f4565b5b600061185184828501611742565b91505092915050565b600080600060608486031215611873576118726116f4565b5b600061188186828701611742565b935050602061189286828701611742565b92505060406118a386828701611778565b9150509250925092565b600060ff82169050919050565b6118c3816118ad565b82525050565b60006020820190506118de60008301846118ba565b92915050565b6118ed81611719565b82525050565b600060208201905061190860008301846118e4565b92915050565b60008060408385031215611925576119246116f4565b5b600061193385828601611778565b925050602061194485828601611742565b9150509250929050565b60008060408385031215611965576119646116f4565b5b600061197385828601611742565b925050602061198485828601611742565b9150509250929050565b7f4e487b7100000000000000000000000000000000000000000000000000000000600052602260045260246000fd5b600060028204905060018216806119d557607f821691505b602082108114156119e9576119e861198e565b5b50919050565b7f45524332303a205f7370656e646572206973207a65726f206164647265737300600082015250565b6000611a25601f83611644565b9150611a30826119ef565b602082019050919050565b60006020820190508181036000830152611a5481611a18565b9050919050565b7f45524332303a206e6f7420656e6f75676820746f6b656e730000000000000000600082015250565b6000611a91601883611644565b9150611a9c82611a5b565b602082019050919050565b60006020820190508181036000830152611ac081611a84565b9050919050565b7f45524332303a207472616e736665722066726f6d207a65726f2061646472657360008201527f7300000000000000000000000000000000000000000000000000000000000000602082015250565b6000611b23602183611644565b9150611b2e82611ac7565b604082019050919050565b60006020820190508181036000830152611b5281611b16565b9050919050565b7f45524332303a207472616e7366657220746f207a65726f206164647265737300600082015250565b6000611b8f601f83611644565b9150611b9a82611b59565b602082019050919050565b60006020820190508181036000830152611bbe81611b82565b9050919050565b7f45524332303a20616d6f756e74206f6620746f6b656e7320746f207472616e7360008201527f666572206973207a65726f000000000000000000000000000000000000000000602082015250565b6000611c21602b83611644565b9150611c2c82611bc5565b604082019050919050565b60006020820190508181036000830152611c5081611c14565b9050919050565b7f45524332303a206e6f7420656e6f75676820616c6c6f77616e63650000000000600082015250565b6000611c8d601b83611644565b9150611c9882611c57565b602082019050919050565b60006020820190508181036000830152611cbc81611c80565b9050919050565b7f4e487b7100000000000000000000000000000000000000000000000000000000600052601160045260246000fd5b6000611cfd82611757565b9150611d0883611757565b925082821015611d1b57611d1a611cc3565b5b828203905092915050565b6000611d3182611757565b9150611d3c83611757565b9250827fffffffffffffffffffffffffffffffffffffffffffffffffffffffffffffffff03821115611d7157611d70611cc3565b5b828201905092915050565b7f45524332303a20796f75277265206e6f7420696e2077686974656c6973740000600082015250565b6000611db2601e83611644565b9150611dbd82611d7c565b602082019050919050565b60006020820190508181036000830152611de181611da5565b9050919050565b7f45524332303a206f776e65722063616e27742062652072656d6f76656420667260008201527f6f6d2077686974656c6973740000000000000000000000000000000000000000602082015250565b6000611e44602c83611644565b9150611e4f82611de8565b604082019050919050565b60006020820190508181036000830152611e7381611e37565b9050919050565b7f45524332303a206164647265737320697320616c7265616479206e6f7420776860008201527f6974656c69737400000000000000000000000000000000000000000000000000602082015250565b6000611ed6602783611644565b9150611ee182611e7a565b604082019050919050565b60006020820190508181036000830152611f0581611ec9565b9050919050565b7f45524332303a206d696e74206279207a65726f20616464726573730000000000600082015250565b6000611f42601b83611644565b9150611f4d82611f0c565b602082019050919050565b60006020820190508181036000830152611f7181611f35565b9050919050565b7f45524332303a20616464696e67207a65726f2061646472657373000000000000600082015250565b6000611fae601a83611644565b9150611fb982611f78565b602082019050919050565b60006020820190508181036000830152611fdd81611fa1565b9050919050565b7f45524332303a206164647265737320616c726561647920696e2077686974656c60008201527f6973740000000000000000000000000000000000000000000000000000000000602082015250565b6000612040602383611644565b915061204b82611fe4565b604082019050919050565b6000602082019050818103600083015261206f81612033565b9050919050565b7f45524332303a206275726e206279207a65726f20616464726573730000000000600082015250565b60006120ac601b83611644565b91506120b782612076565b602082019050919050565b600060208201905081810360008301526120db8161209f565b905091905056fea26469706673582212202714ea98b9c7560d6607778c467fc04b780a0d629710eb5ffc099da66adf204164736f6c63430008090033",
  "linkReferences": {},
  "deployedLinkReferences": {}
}